{
  "_format": "hh-sol-artifact-1",
  "contractName": "WavePortal",
  "sourceName": "contracts/WavePortal.sol",
  "abi": [
    {
      "inputs": [],
      "stateMutability": "payable",
      "type": "constructor"
    },
    {
      "anonymous": false,
      "inputs": [
        {
          "indexed": true,
          "internalType": "address",
          "name": "from",
          "type": "address"
        },
        {
          "indexed": false,
          "internalType": "uint256",
          "name": "timestamp",
          "type": "uint256"
        },
        {
          "indexed": false,
          "internalType": "string",
          "name": "message",
          "type": "string"
        }
      ],
      "name": "NewWave",
      "type": "event"
    },
    {
      "inputs": [
        {
          "internalType": "address",
          "name": "_newAddress",
          "type": "address"
        }
      ],
      "name": "addAddress",
      "outputs": [],
      "stateMutability": "nonpayable",
      "type": "function"
    },
    {
      "inputs": [
        {
          "internalType": "address",
          "name": "_addressToCheck",
          "type": "address"
        }
      ],
      "name": "getAddressExists",
      "outputs": [
        {
          "internalType": "bool",
          "name": "",
          "type": "bool"
        }
      ],
      "stateMutability": "view",
      "type": "function"
    },
    {
      "inputs": [],
      "name": "getAddressList",
      "outputs": [
        {
          "internalType": "address[]",
          "name": "",
          "type": "address[]"
        }
      ],
      "stateMutability": "view",
      "type": "function"
    },
    {
      "inputs": [],
      "name": "getAllWaves",
      "outputs": [
        {
          "components": [
            {
              "internalType": "address",
              "name": "waver",
              "type": "address"
            },
            {
              "internalType": "string",
              "name": "message",
              "type": "string"
            },
            {
              "internalType": "uint256",
              "name": "timestamp",
              "type": "uint256"
            }
          ],
          "internalType": "struct WavePortal.Wave[]",
          "name": "",
          "type": "tuple[]"
        }
      ],
      "stateMutability": "view",
      "type": "function"
    },
    {
      "inputs": [],
      "name": "getTotalWaves",
      "outputs": [
        {
          "internalType": "uint256",
          "name": "",
          "type": "uint256"
        }
      ],
      "stateMutability": "view",
      "type": "function"
    },
    {
      "inputs": [
        {
          "internalType": "address",
          "name": "",
          "type": "address"
        }
      ],
      "name": "lastWavedAt",
      "outputs": [
        {
          "internalType": "uint256",
          "name": "",
          "type": "uint256"
        }
      ],
      "stateMutability": "view",
      "type": "function"
    },
    {
      "inputs": [
        {
          "internalType": "string",
          "name": "_message",
          "type": "string"
        }
      ],
      "name": "wave",
      "outputs": [],
      "stateMutability": "nonpayable",
      "type": "function"
    }
  ],
  "bytecode": "0x60806040526200003360405180606001604052806040815260200162001a98604091396200005b60201b6200094a1760201c565b6064444262000043919062000160565b6200004f9190620001ca565b600381905550620002c0565b620000fb816040516024016200007291906200029c565b6040516020818303038152906040527f41304fac000000000000000000000000000000000000000000000000000000007bffffffffffffffffffffffffffffffffffffffffffffffffffffffff19166020820180517bffffffffffffffffffffffffffffffffffffffffffffffffffffffff8381831617835250505050620000fe60201b60201c565b50565b60008151905060006a636f6e736f6c652e6c6f679050602083016000808483855afa5050505050565b6000819050919050565b7f4e487b7100000000000000000000000000000000000000000000000000000000600052601160045260246000fd5b60006200016d8262000127565b91506200017a8362000127565b925082820190508082111562000195576200019462000131565b5b92915050565b7f4e487b7100000000000000000000000000000000000000000000000000000000600052601260045260246000fd5b6000620001d78262000127565b9150620001e48362000127565b925082620001f757620001f66200019b565b5b828206905092915050565b600081519050919050565b600082825260208201905092915050565b60005b838110156200023e57808201518184015260208101905062000221565b60008484015250505050565b6000601f19601f8301169050919050565b6000620002688262000202565b6200027481856200020d565b9350620002868185602086016200021e565b62000291816200024a565b840191505092915050565b60006020820190508181036000830152620002b881846200025b565b905092915050565b6117c880620002d06000396000f3fe608060405234801561001057600080fd5b506004361061007d5760003560e01c8063811191301161005b57806381119130146100ea5780639a2cdc0814610108578063a42a466314610126578063bd43a908146101565761007d565b8063139457111461008257806338eada1c146100b2578063449d46c0146100ce575b600080fd5b61009c60048036038101906100979190610bb6565b610174565b6040516100a99190610bfe565b60405180910390f35b6100cc60048036038101906100c79190610bb6565b6101ca565b005b6100e860048036038101906100e39190610d5f565b610314565b005b6100f2610708565b6040516100ff9190610e66565b60405180910390f35b610110610796565b60405161011d9190610ea1565b60405180910390f35b610140600480360381019061013b9190610bb6565b6107e1565b60405161014d9190610ea1565b60405180910390f35b61015e6107f9565b60405161016b919061105c565b60405180910390f35b6000600160008373ffffffffffffffffffffffffffffffffffffffff1673ffffffffffffffffffffffffffffffffffffffff16815260200190815260200160002060009054906101000a900460ff169050919050565b600160008273ffffffffffffffffffffffffffffffffffffffff1673ffffffffffffffffffffffffffffffffffffffff16815260200190815260200160002060009054906101000a900460ff1615610257576040517f08c379a000000000000000000000000000000000000000000000000000000000815260040161024e90611101565b60405180910390fd5b60018060008373ffffffffffffffffffffffffffffffffffffffff1673ffffffffffffffffffffffffffffffffffffffff16815260200190815260200160002060006101000a81548160ff0219169083151502179055506002819080600181540180825580915050600190039060005260206000200160009091909190916101000a81548173ffffffffffffffffffffffffffffffffffffffff021916908373ffffffffffffffffffffffffffffffffffffffff16021790555050565b42610384600560003373ffffffffffffffffffffffffffffffffffffffff1673ffffffffffffffffffffffffffffffffffffffff168152602001908152602001600020546103629190611150565b106103a2576040517f08c379a0000000000000000000000000000000000000000000000000000000008152600401610399906111d0565b60405180910390fd5b42600560003373ffffffffffffffffffffffffffffffffffffffff1673ffffffffffffffffffffffffffffffffffffffff1681526020019081526020016000208190555060016000808282546103f89190611150565b9250508190555061043e6040518060400160405280600c81526020017f2573206861732077617665640000000000000000000000000000000000000000815250336109e3565b600460405180606001604052803373ffffffffffffffffffffffffffffffffffffffff16815260200183815260200142815250908060018154018082558091505060019003906000526020600020906003020160009091909190915060008201518160000160006101000a81548173ffffffffffffffffffffffffffffffffffffffff021916908373ffffffffffffffffffffffffffffffffffffffff16021790555060208201518160010190816104f691906113fc565b50604082015181600201555050606460035442446105149190611150565b61051e9190611150565b61052891906114fd565b60038190555061056f6040518060400160405280601681526020017f52616e646f6d20232067656e6572617465643a20256400000000000000000000815250600354610a7f565b6032600354116106b5576105b86040518060400160405280600781526020017f257320776f6e2100000000000000000000000000000000000000000000000000815250336109e3565b6000655af3107a4000905047811115610606576040517f08c379a00000000000000000000000000000000000000000000000000000000081526004016105fd906115a0565b60405180910390fd5b60003373ffffffffffffffffffffffffffffffffffffffff168260405161062c906115f1565b60006040518083038185875af1925050503d8060008114610669576040519150601f19603f3d011682016040523d82523d6000602084013e61066e565b606091505b50509050806106b2576040517f08c379a00000000000000000000000000000000000000000000000000000000081526004016106a990611678565b60405180910390fd5b50505b3373ffffffffffffffffffffffffffffffffffffffff167f5f7e16dc676677766a70e9c5628aa6c54ddb8b6e5188e2ae1e1f17f1ffbea71642836040516106fd9291906116d1565b60405180910390a250565b6060600280548060200260200160405190810160405280929190818152602001828054801561078c57602002820191906000526020600020905b8160009054906101000a900473ffffffffffffffffffffffffffffffffffffffff1673ffffffffffffffffffffffffffffffffffffffff1681526020019060010190808311610742575b5050505050905090565b60006107d96040518060400160405280601781526020017f5765206861766520256420746f74616c20776176657321000000000000000000815250600054610a7f565b600054905090565b60056020528060005260406000206000915090505481565b60606004805480602002602001604051908101604052809291908181526020016000905b8282101561094157838290600052602060002090600302016040518060600160405290816000820160009054906101000a900473ffffffffffffffffffffffffffffffffffffffff1673ffffffffffffffffffffffffffffffffffffffff1673ffffffffffffffffffffffffffffffffffffffff1681526020016001820180546108a69061121f565b80601f01602080910402602001604051908101604052809291908181526020018280546108d29061121f565b801561091f5780601f106108f45761010080835404028352916020019161091f565b820191906000526020600020905b81548152906001019060200180831161090257829003601f168201915b505050505081526020016002820154815250508152602001906001019061081d565b50505050905090565b6109e08160405160240161095e9190611701565b6040516020818303038152906040527f41304fac000000000000000000000000000000000000000000000000000000007bffffffffffffffffffffffffffffffffffffffffffffffffffffffff19166020820180517bffffffffffffffffffffffffffffffffffffffffffffffffffffffff8381831617835250505050610b1b565b50565b610a7b82826040516024016109f9929190611732565b6040516020818303038152906040527f319af333000000000000000000000000000000000000000000000000000000007bffffffffffffffffffffffffffffffffffffffffffffffffffffffff19166020820180517bffffffffffffffffffffffffffffffffffffffffffffffffffffffff8381831617835250505050610b1b565b5050565b610b178282604051602401610a95929190611762565b6040516020818303038152906040527fb60e72cc000000000000000000000000000000000000000000000000000000007bffffffffffffffffffffffffffffffffffffffffffffffffffffffff19166020820180517bffffffffffffffffffffffffffffffffffffffffffffffffffffffff8381831617835250505050610b1b565b5050565b60008151905060006a636f6e736f6c652e6c6f679050602083016000808483855afa5050505050565b6000604051905090565b600080fd5b600080fd5b600073ffffffffffffffffffffffffffffffffffffffff82169050919050565b6000610b8382610b58565b9050919050565b610b9381610b78565b8114610b9e57600080fd5b50565b600081359050610bb081610b8a565b92915050565b600060208284031215610bcc57610bcb610b4e565b5b6000610bda84828501610ba1565b91505092915050565b60008115159050919050565b610bf881610be3565b82525050565b6000602082019050610c136000830184610bef565b92915050565b600080fd5b600080fd5b6000601f19601f8301169050919050565b7f4e487b7100000000000000000000000000000000000000000000000000000000600052604160045260246000fd5b610c6c82610c23565b810181811067ffffffffffffffff82111715610c8b57610c8a610c34565b5b80604052505050565b6000610c9e610b44565b9050610caa8282610c63565b919050565b600067ffffffffffffffff821115610cca57610cc9610c34565b5b610cd382610c23565b9050602081019050919050565b82818337600083830152505050565b6000610d02610cfd84610caf565b610c94565b905082815260208101848484011115610d1e57610d1d610c1e565b5b610d29848285610ce0565b509392505050565b600082601f830112610d4657610d45610c19565b5b8135610d56848260208601610cef565b91505092915050565b600060208284031215610d7557610d74610b4e565b5b600082013567ffffffffffffffff811115610d9357610d92610b53565b5b610d9f84828501610d31565b91505092915050565b600081519050919050565b600082825260208201905092915050565b6000819050602082019050919050565b610ddd81610b78565b82525050565b6000610def8383610dd4565b60208301905092915050565b6000602082019050919050565b6000610e1382610da8565b610e1d8185610db3565b9350610e2883610dc4565b8060005b83811015610e59578151610e408882610de3565b9750610e4b83610dfb565b925050600181019050610e2c565b5085935050505092915050565b60006020820190508181036000830152610e808184610e08565b905092915050565b6000819050919050565b610e9b81610e88565b82525050565b6000602082019050610eb66000830184610e92565b92915050565b600081519050919050565b600082825260208201905092915050565b6000819050602082019050919050565b600081519050919050565b600082825260208201905092915050565b60005b83811015610f22578082015181840152602081019050610f07565b60008484015250505050565b6000610f3982610ee8565b610f438185610ef3565b9350610f53818560208601610f04565b610f5c81610c23565b840191505092915050565b610f7081610e88565b82525050565b6000606083016000830151610f8e6000860182610dd4565b5060208301518482036020860152610fa68282610f2e565b9150506040830151610fbb6040860182610f67565b508091505092915050565b6000610fd28383610f76565b905092915050565b6000602082019050919050565b6000610ff282610ebc565b610ffc8185610ec7565b93508360208202850161100e85610ed8565b8060005b8581101561104a578484038952815161102b8582610fc6565b945061103683610fda565b925060208a01995050600181019050611012565b50829750879550505050505092915050565b600060208201905081810360008301526110768184610fe7565b905092915050565b600082825260208201905092915050565b7f4164647265737320616c72656164792065786973747320696e206d617070696e60008201527f6700000000000000000000000000000000000000000000000000000000000000602082015250565b60006110eb60218361107e565b91506110f68261108f565b604082019050919050565b6000602082019050818103600083015261111a816110de565b9050919050565b7f4e487b7100000000000000000000000000000000000000000000000000000000600052601160045260246000fd5b600061115b82610e88565b915061116683610e88565b925082820190508082111561117e5761117d611121565b5b92915050565b7f576169742031356d000000000000000000000000000000000000000000000000600082015250565b60006111ba60088361107e565b91506111c582611184565b602082019050919050565b600060208201905081810360008301526111e9816111ad565b9050919050565b7f4e487b7100000000000000000000000000000000000000000000000000000000600052602260045260246000fd5b6000600282049050600182168061123757607f821691505b60208210810361124a576112496111f0565b5b50919050565b60008190508160005260206000209050919050565b60006020601f8301049050919050565b600082821b905092915050565b6000600883026112b27fffffffffffffffffffffffffffffffffffffffffffffffffffffffffffffffff82611275565b6112bc8683611275565b95508019841693508086168417925050509392505050565b6000819050919050565b60006112f96112f46112ef84610e88565b6112d4565b610e88565b9050919050565b6000819050919050565b611313836112de565b61132761131f82611300565b848454611282565b825550505050565b600090565b61133c61132f565b61134781848461130a565b505050565b5b8181101561136b57611360600082611334565b60018101905061134d565b5050565b601f8211156113b05761138181611250565b61138a84611265565b81016020851015611399578190505b6113ad6113a585611265565b83018261134c565b50505b505050565b600082821c905092915050565b60006113d3600019846008026113b5565b1980831691505092915050565b60006113ec83836113c2565b9150826002028217905092915050565b61140582610ee8565b67ffffffffffffffff81111561141e5761141d610c34565b5b611428825461121f565b61143382828561136f565b600060209050601f8311600181146114665760008415611454578287015190505b61145e85826113e0565b8655506114c6565b601f19841661147486611250565b60005b8281101561149c57848901518255600182019150602085019450602081019050611477565b868310156114b957848901516114b5601f8916826113c2565b8355505b6001600288020188555050505b505050505050565b7f4e487b7100000000000000000000000000000000000000000000000000000000600052601260045260246000fd5b600061150882610e88565b915061151383610e88565b925082611523576115226114ce565b5b828206905092915050565b7f547279696e6720746f207769746864726177206d6f7265206d6f6e657920746860008201527f616e2074686520636f6e7472616374206861732e000000000000000000000000602082015250565b600061158a60348361107e565b91506115958261152e565b604082019050919050565b600060208201905081810360008301526115b98161157d565b9050919050565b600081905092915050565b50565b60006115db6000836115c0565b91506115e6826115cb565b600082019050919050565b60006115fc826115ce565b9150819050919050565b7f4661696c656420746f207769746864726177206d6f6e65792066726f6d20636f60008201527f6e74726163742e00000000000000000000000000000000000000000000000000602082015250565b600061166260278361107e565b915061166d82611606565b604082019050919050565b6000602082019050818103600083015261169181611655565b9050919050565b60006116a382610ee8565b6116ad818561107e565b93506116bd818560208601610f04565b6116c681610c23565b840191505092915050565b60006040820190506116e66000830185610e92565b81810360208301526116f88184611698565b90509392505050565b6000602082019050818103600083015261171b8184611698565b905092915050565b61172c81610b78565b82525050565b6000604082019050818103600083015261174c8185611698565b905061175b6020830184611723565b9392505050565b6000604082019050818103600083015261177c8185611698565b905061178b6020830184610e92565b939250505056fea2646970667358221220a89c19e426c7b594e5006f17b53c4e997f60bb6b62cf75ea6ceddd4f0084fa4664736f6c63430008110033596f20796f2c204920616d206120636f6e747261637420616e64204920616d20736d61727420616e642068617665206265656e20636f6e737472756374656421",
  "linkReferences": {},
  "deployedLinkReferences": {}
}